{
  "_format": "hh-sol-artifact-1",
  "contractName": "TicketSale",
  "sourceName": "contracts/TicketSale.sol",
  "abi": [
    {
      "inputs": [
        {
          "internalType": "uint256",
          "name": "numTickets",
          "type": "uint256"
        },
        {
          "internalType": "uint256",
          "name": "price",
          "type": "uint256"
        }
      ],
      "stateMutability": "nonpayable",
      "type": "constructor"
    },
    {
      "inputs": [
        {
          "internalType": "uint256",
          "name": "ticketId",
          "type": "uint256"
        }
      ],
      "name": "acceptResale",
      "outputs": [],
      "stateMutability": "payable",
      "type": "function"
    },
    {
      "inputs": [
        {
          "internalType": "uint256",
          "name": "myTicketId",
          "type": "uint256"
        }
      ],
      "name": "acceptSwap",
      "outputs": [],
      "stateMutability": "nonpayable",
      "type": "function"
    },
    {
      "inputs": [
        {
          "internalType": "uint256",
          "name": "ticketId",
          "type": "uint256"
        }
      ],
      "name": "buyTicket",
      "outputs": [],
      "stateMutability": "payable",
      "type": "function"
    },
    {
      "inputs": [],
      "name": "checkResale",
      "outputs": [
        {
          "internalType": "uint256[]",
          "name": "",
          "type": "uint256[]"
        }
      ],
      "stateMutability": "view",
      "type": "function"
    },
    {
      "inputs": [
        {
          "internalType": "address",
          "name": "person",
          "type": "address"
        }
      ],
      "name": "getTicketOf",
      "outputs": [
        {
          "internalType": "uint256",
          "name": "",
          "type": "uint256"
        }
      ],
      "stateMutability": "view",
      "type": "function"
    },
    {
      "inputs": [],
      "name": "manager",
      "outputs": [
        {
          "internalType": "address",
          "name": "",
          "type": "address"
        }
      ],
      "stateMutability": "view",
      "type": "function"
    },
    {
      "inputs": [
        {
          "internalType": "uint256",
          "name": "ticketId",
          "type": "uint256"
        }
      ],
      "name": "offerSwap",
      "outputs": [],
      "stateMutability": "nonpayable",
      "type": "function"
    },
    {
      "inputs": [
        {
          "internalType": "uint256",
          "name": "price",
          "type": "uint256"
        }
      ],
      "name": "resaleTicket",
      "outputs": [],
      "stateMutability": "nonpayable",
      "type": "function"
    },
    {
      "inputs": [],
      "name": "returnTicket",
      "outputs": [],
      "stateMutability": "nonpayable",
      "type": "function"
    },
    {
      "inputs": [
        {
          "internalType": "address",
          "name": "",
          "type": "address"
        },
        {
          "internalType": "address",
          "name": "",
          "type": "address"
        }
      ],
      "name": "swapOffers",
      "outputs": [
        {
          "internalType": "uint256",
          "name": "",
          "type": "uint256"
        }
      ],
      "stateMutability": "view",
      "type": "function"
    },
    {
      "inputs": [
        {
          "internalType": "address",
          "name": "",
          "type": "address"
        }
      ],
      "name": "ticketOwners",
      "outputs": [
        {
          "internalType": "uint256",
          "name": "",
          "type": "uint256"
        }
      ],
      "stateMutability": "view",
      "type": "function"
    },
    {
      "inputs": [],
      "name": "ticketPrice",
      "outputs": [
        {
          "internalType": "uint256",
          "name": "",
          "type": "uint256"
        }
      ],
      "stateMutability": "view",
      "type": "function"
    },
    {
      "inputs": [
        {
          "internalType": "uint256",
          "name": "",
          "type": "uint256"
        }
      ],
      "name": "tickets",
      "outputs": [
        {
          "internalType": "address",
          "name": "owner",
          "type": "address"
        },
        {
          "internalType": "uint256",
          "name": "price",
          "type": "uint256"
        },
        {
          "internalType": "bool",
          "name": "forSale",
          "type": "bool"
        }
      ],
      "stateMutability": "view",
      "type": "function"
    },
    {
      "inputs": [],
      "name": "totalTickets",
      "outputs": [
        {
          "internalType": "uint256",
          "name": "",
          "type": "uint256"
        }
      ],
      "stateMutability": "view",
      "type": "function"
    }
  ],
  "bytecode": "0x60806040523480156200001157600080fd5b5060405162002117380380620021178339818101604052810190620000379190620000cd565b336000806101000a81548173ffffffffffffffffffffffffffffffffffffffff021916908373ffffffffffffffffffffffffffffffffffffffff1602179055508160028190555080600181905550505062000114565b600080fd5b6000819050919050565b620000a78162000092565b8114620000b357600080fd5b50565b600081519050620000c7816200009c565b92915050565b60008060408385031215620000e757620000e66200008d565b5b6000620000f785828601620000b6565b92505060206200010a85828601620000b6565b9150509250929050565b611ff380620001246000396000f3fe6080604052600436106100dd5760003560e01c80634a52bba51161007f578063943ba21211610059578063943ba212146102b3578063a3c1a1fe146102cf578063c4a4be83146102f8578063dd11247e14610323576100dd565b80634a52bba51461024157806350b447121461025857806367dd74ca14610297576100dd565b80631f6ea787116100bb5780631f6ea78714610173578063212d94c3146101b0578063406b2c2c146101ed578063481c6a7514610216576100dd565b80630412f4ab146100e25780631209b1f61461011f5780631bf330041461014a575b600080fd5b3480156100ee57600080fd5b50610109600480360381019061010491906116d3565b61034e565b6040516101169190611719565b60405180910390f35b34801561012b57600080fd5b50610134610397565b6040516101419190611719565b60405180910390f35b34801561015657600080fd5b50610171600480360381019061016c9190611760565b61039d565b005b34801561017f57600080fd5b5061019a600480360381019061019591906116d3565b6107ba565b6040516101a79190611719565b60405180910390f35b3480156101bc57600080fd5b506101d760048036038101906101d2919061178d565b6107d2565b6040516101e49190611719565b60405180910390f35b3480156101f957600080fd5b50610214600480360381019061020f9190611760565b6107f7565b005b34801561022257600080fd5b5061022b610ac7565b60405161023891906117dc565b60405180910390f35b34801561024d57600080fd5b50610256610aeb565b005b34801561026457600080fd5b5061027f600480360381019061027a9190611760565b610d6e565b60405161028e93929190611812565b60405180910390f35b6102b160048036038101906102ac9190611760565b610dc5565b005b6102cd60048036038101906102c89190611760565b611084565b005b3480156102db57600080fd5b506102f660048036038101906102f19190611760565b611414565b005b34801561030457600080fd5b5061030d6114e9565b60405161031a9190611907565b60405180910390f35b34801561032f57600080fd5b5061033861166a565b6040516103459190611719565b60405180910390f35b6000600460008373ffffffffffffffffffffffffffffffffffffffff1673ffffffffffffffffffffffffffffffffffffffff168152602001908152602001600020549050919050565b60015481565b80600460003373ffffffffffffffffffffffffffffffffffffffff1673ffffffffffffffffffffffffffffffffffffffff168152602001908152602001600020541461041e576040517f08c379a000000000000000000000000000000000000000000000000000000000815260040161041590611986565b60405180910390fd5b600080600090506000600190505b60025481116105bf576000600560006003600085815260200190815260200160002060000160009054906101000a900473ffffffffffffffffffffffffffffffffffffffff1673ffffffffffffffffffffffffffffffffffffffff1673ffffffffffffffffffffffffffffffffffffffff16815260200190815260200160002060003373ffffffffffffffffffffffffffffffffffffffff1673ffffffffffffffffffffffffffffffffffffffff16815260200190815260200160002054146105ac576003600082815260200190815260200160002060000160009054906101000a900473ffffffffffffffffffffffffffffffffffffffff169250600560008473ffffffffffffffffffffffffffffffffffffffff1673ffffffffffffffffffffffffffffffffffffffff16815260200190815260200160002060003373ffffffffffffffffffffffffffffffffffffffff1673ffffffffffffffffffffffffffffffffffffffff1681526020019081526020016000205491506105bf565b80806105b7906119d5565b91505061042c565b5060008103610603576040517f08c379a00000000000000000000000000000000000000000000000000000000081526004016105fa90611a69565b60405180910390fd5b816003600085815260200190815260200160002060000160006101000a81548173ffffffffffffffffffffffffffffffffffffffff021916908373ffffffffffffffffffffffffffffffffffffffff160217905550336003600083815260200190815260200160002060000160006101000a81548173ffffffffffffffffffffffffffffffffffffffff021916908373ffffffffffffffffffffffffffffffffffffffff16021790555080600460003373ffffffffffffffffffffffffffffffffffffffff1673ffffffffffffffffffffffffffffffffffffffff1681526020019081526020016000208190555082600460008473ffffffffffffffffffffffffffffffffffffffff1673ffffffffffffffffffffffffffffffffffffffff16815260200190815260200160002081905550600560008373ffffffffffffffffffffffffffffffffffffffff1673ffffffffffffffffffffffffffffffffffffffff16815260200190815260200160002060003373ffffffffffffffffffffffffffffffffffffffff1673ffffffffffffffffffffffffffffffffffffffff16815260200190815260200160002060009055505050565b60046020528060005260406000206000915090505481565b6005602052816000526040600020602052806000526040600020600091509150505481565b6000600460003373ffffffffffffffffffffffffffffffffffffffff1673ffffffffffffffffffffffffffffffffffffffff1681526020019081526020016000205403610879576040517f08c379a000000000000000000000000000000000000000000000000000000000815260040161087090611ad5565b60405180910390fd5b600073ffffffffffffffffffffffffffffffffffffffff166003600083815260200190815260200160002060000160009054906101000a900473ffffffffffffffffffffffffffffffffffffffff1673ffffffffffffffffffffffffffffffffffffffff160361091e576040517f08c379a000000000000000000000000000000000000000000000000000000000815260040161091590611b41565b60405180910390fd5b3373ffffffffffffffffffffffffffffffffffffffff166003600083815260200190815260200160002060000160009054906101000a900473ffffffffffffffffffffffffffffffffffffffff1673ffffffffffffffffffffffffffffffffffffffff16036109c2576040517f08c379a00000000000000000000000000000000000000000000000000000000081526004016109b990611bad565b60405180910390fd5b6000600460003373ffffffffffffffffffffffffffffffffffffffff1673ffffffffffffffffffffffffffffffffffffffff16815260200190815260200160002054905060006003600084815260200190815260200160002060000160009054906101000a900473ffffffffffffffffffffffffffffffffffffffff16905081600560003373ffffffffffffffffffffffffffffffffffffffff1673ffffffffffffffffffffffffffffffffffffffff16815260200190815260200160002060008373ffffffffffffffffffffffffffffffffffffffff1673ffffffffffffffffffffffffffffffffffffffff16815260200190815260200160002081905550505050565b60008054906101000a900473ffffffffffffffffffffffffffffffffffffffff1681565b6000600460003373ffffffffffffffffffffffffffffffffffffffff1673ffffffffffffffffffffffffffffffffffffffff16815260200190815260200160002054905060008103610b72576040517f08c379a0000000000000000000000000000000000000000000000000000000008152600401610b6990611ad5565b60405180910390fd5b60006003600083815260200190815260200160002090508060020160009054906101000a900460ff1615610bdb576040517f08c379a0000000000000000000000000000000000000000000000000000000008152600401610bd290611c19565b60405180910390fd5b60006064600a600154610bee9190611c39565b610bf89190611caa565b9050600081600154610c0a9190611cdb565b905060008360000160006101000a81548173ffffffffffffffffffffffffffffffffffffffff021916908373ffffffffffffffffffffffffffffffffffffffff16021790555060008360020160006101000a81548160ff02191690831515021790555060008360010181905550600460003373ffffffffffffffffffffffffffffffffffffffff1673ffffffffffffffffffffffffffffffffffffffff168152602001908152602001600020600090553373ffffffffffffffffffffffffffffffffffffffff166108fc829081150290604051600060405180830381858888f19350505050158015610d00573d6000803e3d6000fd5b5060008054906101000a900473ffffffffffffffffffffffffffffffffffffffff1673ffffffffffffffffffffffffffffffffffffffff166108fc839081150290604051600060405180830381858888f19350505050158015610d67573d6000803e3d6000fd5b5050505050565b60036020528060005260406000206000915090508060000160009054906101000a900473ffffffffffffffffffffffffffffffffffffffff16908060010154908060020160009054906101000a900460ff16905083565b600081118015610dd757506002548111155b610e16576040517f08c379a0000000000000000000000000000000000000000000000000000000008152600401610e0d90611d5b565b60405180910390fd5b600073ffffffffffffffffffffffffffffffffffffffff166003600083815260200190815260200160002060000160009054906101000a900473ffffffffffffffffffffffffffffffffffffffff1673ffffffffffffffffffffffffffffffffffffffff1614610ebb576040517f08c379a0000000000000000000000000000000000000000000000000000000008152600401610eb290611dc7565b60405180910390fd5b6000600460003373ffffffffffffffffffffffffffffffffffffffff1673ffffffffffffffffffffffffffffffffffffffff1681526020019081526020016000205414610f3d576040517f08c379a0000000000000000000000000000000000000000000000000000000008152600401610f3490611e33565b60405180910390fd5b6001543414610f81576040517f08c379a0000000000000000000000000000000000000000000000000000000008152600401610f7890611e9f565b60405180910390fd5b336003600083815260200190815260200160002060000160006101000a81548173ffffffffffffffffffffffffffffffffffffffff021916908373ffffffffffffffffffffffffffffffffffffffff16021790555080600460003373ffffffffffffffffffffffffffffffffffffffff1673ffffffffffffffffffffffffffffffffffffffff1681526020019081526020016000208190555060008054906101000a900473ffffffffffffffffffffffffffffffffffffffff1673ffffffffffffffffffffffffffffffffffffffff166108fc349081150290604051600060405180830381858888f19350505050158015611080573d6000803e3d6000fd5b5050565b6003600082815260200190815260200160002060020160009054906101000a900460ff166110e7576040517f08c379a00000000000000000000000000000000000000000000000000000000081526004016110de90611f0b565b60405180910390fd5b6000600460003373ffffffffffffffffffffffffffffffffffffffff1673ffffffffffffffffffffffffffffffffffffffff1681526020019081526020016000205414611169576040517f08c379a000000000000000000000000000000000000000000000000000000000815260040161116090611e33565b60405180910390fd5b600360008281526020019081526020016000206001015434146111c1576040517f08c379a00000000000000000000000000000000000000000000000000000000081526004016111b890611e9f565b60405180910390fd5b60006003600083815260200190815260200160002060000160009054906101000a900473ffffffffffffffffffffffffffffffffffffffff16905060006064600a60036000868152602001908152602001600020600101546112239190611c39565b61122d9190611caa565b905060008160036000868152602001908152602001600020600101546112539190611cdb565b90508273ffffffffffffffffffffffffffffffffffffffff166108fc829081150290604051600060405180830381858888f1935050505015801561129b573d6000803e3d6000fd5b5060008054906101000a900473ffffffffffffffffffffffffffffffffffffffff1673ffffffffffffffffffffffffffffffffffffffff166108fc839081150290604051600060405180830381858888f19350505050158015611302573d6000803e3d6000fd5b50336003600086815260200190815260200160002060000160006101000a81548173ffffffffffffffffffffffffffffffffffffffff021916908373ffffffffffffffffffffffffffffffffffffffff16021790555060006003600086815260200190815260200160002060020160006101000a81548160ff02191690831515021790555083600460003373ffffffffffffffffffffffffffffffffffffffff1673ffffffffffffffffffffffffffffffffffffffff16815260200190815260200160002081905550600460008473ffffffffffffffffffffffffffffffffffffffff1673ffffffffffffffffffffffffffffffffffffffff1681526020019081526020016000206000905550505050565b6000600460003373ffffffffffffffffffffffffffffffffffffffff1673ffffffffffffffffffffffffffffffffffffffff1681526020019081526020016000205490506000810361149b576040517f08c379a000000000000000000000000000000000000000000000000000000000815260040161149290611ad5565b60405180910390fd5b81600360008381526020019081526020016000206001018190555060016003600083815260200190815260200160002060020160006101000a81548160ff0219169083151502179055505050565b6060600080600190505b6002548111611547576003600082815260200190815260200160002060020160009054906101000a900460ff1615611534578180611530906119d5565b9250505b808061153f906119d5565b9150506114f3565b5060006002826115579190611c39565b67ffffffffffffffff8111156115705761156f611f2b565b5b60405190808252806020026020018201604052801561159e5781602001602082028036833780820191505090505b509050600080600190505b6002548111611660576003600082815260200190815260200160002060020160009054906101000a900460ff161561164d57808383815181106115ef576115ee611f5a565b5b6020026020010181815250506003600082815260200190815260200160002060010154836001846116209190611f89565b8151811061163157611630611f5a565b5b60200260200101818152505060028261164a9190611f89565b91505b8080611658906119d5565b9150506115a9565b5081935050505090565b60025481565b600080fd5b600073ffffffffffffffffffffffffffffffffffffffff82169050919050565b60006116a082611675565b9050919050565b6116b081611695565b81146116bb57600080fd5b50565b6000813590506116cd816116a7565b92915050565b6000602082840312156116e9576116e8611670565b5b60006116f7848285016116be565b91505092915050565b6000819050919050565b61171381611700565b82525050565b600060208201905061172e600083018461170a565b92915050565b61173d81611700565b811461174857600080fd5b50565b60008135905061175a81611734565b92915050565b60006020828403121561177657611775611670565b5b60006117848482850161174b565b91505092915050565b600080604083850312156117a4576117a3611670565b5b60006117b2858286016116be565b92505060206117c3858286016116be565b9150509250929050565b6117d681611695565b82525050565b60006020820190506117f160008301846117cd565b92915050565b60008115159050919050565b61180c816117f7565b82525050565b600060608201905061182760008301866117cd565b611834602083018561170a565b6118416040830184611803565b949350505050565b600081519050919050565b600082825260208201905092915050565b6000819050602082019050919050565b61187e81611700565b82525050565b60006118908383611875565b60208301905092915050565b6000602082019050919050565b60006118b482611849565b6118be8185611854565b93506118c983611865565b8060005b838110156118fa5781516118e18882611884565b97506118ec8361189c565b9250506001810190506118cd565b5085935050505092915050565b6000602082019050818103600083015261192181846118a9565b905092915050565b600082825260208201905092915050565b7f596f7520646f6e2774206f776e2074686973207469636b657400000000000000600082015250565b6000611970601983611929565b915061197b8261193a565b602082019050919050565b6000602082019050818103600083015261199f81611963565b9050919050565b7f4e487b7100000000000000000000000000000000000000000000000000000000600052601160045260246000fd5b60006119e082611700565b91507fffffffffffffffffffffffffffffffffffffffffffffffffffffffffffffffff8203611a1257611a116119a6565b5b600182019050919050565b7f4e6f2073776170206f6666657220666f7220796f750000000000000000000000600082015250565b6000611a53601583611929565b9150611a5e82611a1d565b602082019050919050565b60006020820190508181036000830152611a8281611a46565b9050919050565b7f596f7520646f6e2774206f776e2061207469636b657400000000000000000000600082015250565b6000611abf601683611929565b9150611aca82611a89565b602082019050919050565b60006020820190508181036000830152611aee81611ab2565b9050919050565b7f546172676574207469636b6574206e6f7420736f6c6400000000000000000000600082015250565b6000611b2b601683611929565b9150611b3682611af5565b602082019050919050565b60006020820190508181036000830152611b5a81611b1e565b9050919050565b7f43616e6e6f742073776170207769746820796f757273656c6600000000000000600082015250565b6000611b97601983611929565b9150611ba282611b61565b602082019050919050565b60006020820190508181036000830152611bc681611b8a565b9050919050565b7f5469636b657420616c7265616479206d61726b656420666f7220726573616c65600082015250565b6000611c03602083611929565b9150611c0e82611bcd565b602082019050919050565b60006020820190508181036000830152611c3281611bf6565b9050919050565b6000611c4482611700565b9150611c4f83611700565b9250828202611c5d81611700565b91508282048414831517611c7457611c736119a6565b5b5092915050565b7f4e487b7100000000000000000000000000000000000000000000000000000000600052601260045260246000fd5b6000611cb582611700565b9150611cc083611700565b925082611cd057611ccf611c7b565b5b828204905092915050565b6000611ce682611700565b9150611cf183611700565b9250828203905081811115611d0957611d086119a6565b5b92915050565b7f496e76616c6964207469636b6574204944000000000000000000000000000000600082015250565b6000611d45601183611929565b9150611d5082611d0f565b602082019050919050565b60006020820190508181036000830152611d7481611d38565b9050919050565b7f5469636b657420616c726561647920736f6c6400000000000000000000000000600082015250565b6000611db1601383611929565b9150611dbc82611d7b565b602082019050919050565b60006020820190508181036000830152611de081611da4565b9050919050565b7f596f7520616c7265616479206f776e2061207469636b65740000000000000000600082015250565b6000611e1d601883611929565b9150611e2882611de7565b602082019050919050565b60006020820190508181036000830152611e4c81611e10565b9050919050565b7f496e636f7272656374207061796d656e7420616d6f756e740000000000000000600082015250565b6000611e89601883611929565b9150611e9482611e53565b602082019050919050565b60006020820190508181036000830152611eb881611e7c565b9050919050565b7f5469636b6574206e6f7420666f722073616c6500000000000000000000000000600082015250565b6000611ef5601383611929565b9150611f0082611ebf565b602082019050919050565b60006020820190508181036000830152611f2481611ee8565b9050919050565b7f4e487b7100000000000000000000000000000000000000000000000000000000600052604160045260246000fd5b7f4e487b7100000000000000000000000000000000000000000000000000000000600052603260045260246000fd5b6000611f9482611700565b9150611f9f83611700565b9250828201905080821115611fb757611fb66119a6565b5b9291505056fea2646970667358221220dce58e8680722f59d4a04adc66147a77687a777007b93d1aeb323c2b82a5d5e564736f6c63430008110033",
  "linkReferences": {},
  "deployedLinkReferences": {}
}