{
  "_format": "hh-sol-artifact-1",
  "contractName": "TicketSale",
  "sourceName": "contracts/TicketSale.sol",
  "abi": [
    {
      "inputs": [
        {
          "internalType": "uint256",
          "name": "numTickets",
          "type": "uint256"
        },
        {
          "internalType": "uint256",
          "name": "price",
          "type": "uint256"
        }
      ],
      "stateMutability": "nonpayable",
      "type": "constructor"
    },
    {
      "inputs": [
        {
          "internalType": "uint256",
          "name": "ticketId",
          "type": "uint256"
        }
      ],
      "name": "acceptResale",
      "outputs": [],
      "stateMutability": "payable",
      "type": "function"
    },
    {
      "inputs": [
        {
          "internalType": "uint256",
          "name": "myTicketId",
          "type": "uint256"
        }
      ],
      "name": "acceptSwap",
      "outputs": [],
      "stateMutability": "nonpayable",
      "type": "function"
    },
    {
      "inputs": [
        {
          "internalType": "uint256",
          "name": "ticketId",
          "type": "uint256"
        }
      ],
      "name": "buyTicket",
      "outputs": [],
      "stateMutability": "payable",
      "type": "function"
    },
    {
      "inputs": [],
      "name": "checkResale",
      "outputs": [
        {
          "internalType": "uint256[]",
          "name": "",
          "type": "uint256[]"
        }
      ],
      "stateMutability": "view",
      "type": "function"
    },
    {
      "inputs": [
        {
          "internalType": "address",
          "name": "person",
          "type": "address"
        }
      ],
      "name": "getTicketOf",
      "outputs": [
        {
          "internalType": "uint256",
          "name": "",
          "type": "uint256"
        }
      ],
      "stateMutability": "view",
      "type": "function"
    },
    {
      "inputs": [],
      "name": "manager",
      "outputs": [
        {
          "internalType": "address",
          "name": "",
          "type": "address"
        }
      ],
      "stateMutability": "view",
      "type": "function"
    },
    {
      "inputs": [
        {
          "internalType": "uint256",
          "name": "ticketId",
          "type": "uint256"
        }
      ],
      "name": "offerSwap",
      "outputs": [],
      "stateMutability": "nonpayable",
      "type": "function"
    },
    {
      "inputs": [
        {
          "internalType": "uint256",
          "name": "price",
          "type": "uint256"
        }
      ],
      "name": "resaleTicket",
      "outputs": [],
      "stateMutability": "nonpayable",
      "type": "function"
    },
    {
      "inputs": [
        {
          "internalType": "address",
          "name": "",
          "type": "address"
        },
        {
          "internalType": "address",
          "name": "",
          "type": "address"
        }
      ],
      "name": "swapOffers",
      "outputs": [
        {
          "internalType": "uint256",
          "name": "",
          "type": "uint256"
        }
      ],
      "stateMutability": "view",
      "type": "function"
    },
    {
      "inputs": [
        {
          "internalType": "address",
          "name": "",
          "type": "address"
        }
      ],
      "name": "ticketOwners",
      "outputs": [
        {
          "internalType": "uint256",
          "name": "",
          "type": "uint256"
        }
      ],
      "stateMutability": "view",
      "type": "function"
    },
    {
      "inputs": [],
      "name": "ticketPrice",
      "outputs": [
        {
          "internalType": "uint256",
          "name": "",
          "type": "uint256"
        }
      ],
      "stateMutability": "view",
      "type": "function"
    },
    {
      "inputs": [
        {
          "internalType": "uint256",
          "name": "",
          "type": "uint256"
        }
      ],
      "name": "tickets",
      "outputs": [
        {
          "internalType": "address",
          "name": "owner",
          "type": "address"
        },
        {
          "internalType": "uint256",
          "name": "price",
          "type": "uint256"
        },
        {
          "internalType": "bool",
          "name": "forSale",
          "type": "bool"
        }
      ],
      "stateMutability": "view",
      "type": "function"
    },
    {
      "inputs": [],
      "name": "totalTickets",
      "outputs": [
        {
          "internalType": "uint256",
          "name": "",
          "type": "uint256"
        }
      ],
      "stateMutability": "view",
      "type": "function"
    }
  ],
  "bytecode": "0x60806040523480156200001157600080fd5b5060405162001df638038062001df68339818101604052810190620000379190620000cd565b336000806101000a81548173ffffffffffffffffffffffffffffffffffffffff021916908373ffffffffffffffffffffffffffffffffffffffff1602179055508160028190555080600181905550505062000114565b600080fd5b6000819050919050565b620000a78162000092565b8114620000b357600080fd5b50565b600081519050620000c7816200009c565b92915050565b60008060408385031215620000e757620000e66200008d565b5b6000620000f785828601620000b6565b92505060206200010a85828601620000b6565b9150509250929050565b611cd280620001246000396000f3fe6080604052600436106100c25760003560e01c8063481c6a751161007f578063943ba21211610059578063943ba21214610281578063a3c1a1fe1461029d578063c4a4be83146102c6578063dd11247e146102f1576100c2565b8063481c6a75146101fb57806350b447121461022657806367dd74ca14610265576100c2565b80630412f4ab146100c75780631209b1f6146101045780631bf330041461012f5780631f6ea78714610158578063212d94c314610195578063406b2c2c146101d2575b600080fd5b3480156100d357600080fd5b506100ee60048036038101906100e9919061141e565b61031c565b6040516100fb9190611464565b60405180910390f35b34801561011057600080fd5b50610119610365565b6040516101269190611464565b60405180910390f35b34801561013b57600080fd5b50610156600480360381019061015191906114ab565b61036b565b005b34801561016457600080fd5b5061017f600480360381019061017a919061141e565b610788565b60405161018c9190611464565b60405180910390f35b3480156101a157600080fd5b506101bc60048036038101906101b791906114d8565b6107a0565b6040516101c99190611464565b60405180910390f35b3480156101de57600080fd5b506101f960048036038101906101f491906114ab565b6107c5565b005b34801561020757600080fd5b50610210610a95565b60405161021d9190611527565b60405180910390f35b34801561023257600080fd5b5061024d600480360381019061024891906114ab565b610ab9565b60405161025c9392919061155d565b60405180910390f35b61027f600480360381019061027a91906114ab565b610b10565b005b61029b600480360381019061029691906114ab565b610dcf565b005b3480156102a957600080fd5b506102c460048036038101906102bf91906114ab565b61115f565b005b3480156102d257600080fd5b506102db611234565b6040516102e89190611652565b60405180910390f35b3480156102fd57600080fd5b506103066113b5565b6040516103139190611464565b60405180910390f35b6000600460008373ffffffffffffffffffffffffffffffffffffffff1673ffffffffffffffffffffffffffffffffffffffff168152602001908152602001600020549050919050565b60015481565b80600460003373ffffffffffffffffffffffffffffffffffffffff1673ffffffffffffffffffffffffffffffffffffffff16815260200190815260200160002054146103ec576040517f08c379a00000000000000000000000000000000000000000000000000000000081526004016103e3906116d1565b60405180910390fd5b600080600090506000600190505b600254811161058d576000600560006003600085815260200190815260200160002060000160009054906101000a900473ffffffffffffffffffffffffffffffffffffffff1673ffffffffffffffffffffffffffffffffffffffff1673ffffffffffffffffffffffffffffffffffffffff16815260200190815260200160002060003373ffffffffffffffffffffffffffffffffffffffff1673ffffffffffffffffffffffffffffffffffffffff168152602001908152602001600020541461057a576003600082815260200190815260200160002060000160009054906101000a900473ffffffffffffffffffffffffffffffffffffffff169250600560008473ffffffffffffffffffffffffffffffffffffffff1673ffffffffffffffffffffffffffffffffffffffff16815260200190815260200160002060003373ffffffffffffffffffffffffffffffffffffffff1673ffffffffffffffffffffffffffffffffffffffff16815260200190815260200160002054915061058d565b808061058590611720565b9150506103fa565b50600081036105d1576040517f08c379a00000000000000000000000000000000000000000000000000000000081526004016105c8906117b4565b60405180910390fd5b816003600085815260200190815260200160002060000160006101000a81548173ffffffffffffffffffffffffffffffffffffffff021916908373ffffffffffffffffffffffffffffffffffffffff160217905550336003600083815260200190815260200160002060000160006101000a81548173ffffffffffffffffffffffffffffffffffffffff021916908373ffffffffffffffffffffffffffffffffffffffff16021790555080600460003373ffffffffffffffffffffffffffffffffffffffff1673ffffffffffffffffffffffffffffffffffffffff1681526020019081526020016000208190555082600460008473ffffffffffffffffffffffffffffffffffffffff1673ffffffffffffffffffffffffffffffffffffffff16815260200190815260200160002081905550600560008373ffffffffffffffffffffffffffffffffffffffff1673ffffffffffffffffffffffffffffffffffffffff16815260200190815260200160002060003373ffffffffffffffffffffffffffffffffffffffff1673ffffffffffffffffffffffffffffffffffffffff16815260200190815260200160002060009055505050565b60046020528060005260406000206000915090505481565b6005602052816000526040600020602052806000526040600020600091509150505481565b6000600460003373ffffffffffffffffffffffffffffffffffffffff1673ffffffffffffffffffffffffffffffffffffffff1681526020019081526020016000205403610847576040517f08c379a000000000000000000000000000000000000000000000000000000000815260040161083e90611820565b60405180910390fd5b600073ffffffffffffffffffffffffffffffffffffffff166003600083815260200190815260200160002060000160009054906101000a900473ffffffffffffffffffffffffffffffffffffffff1673ffffffffffffffffffffffffffffffffffffffff16036108ec576040517f08c379a00000000000000000000000000000000000000000000000000000000081526004016108e39061188c565b60405180910390fd5b3373ffffffffffffffffffffffffffffffffffffffff166003600083815260200190815260200160002060000160009054906101000a900473ffffffffffffffffffffffffffffffffffffffff1673ffffffffffffffffffffffffffffffffffffffff1603610990576040517f08c379a0000000000000000000000000000000000000000000000000000000008152600401610987906118f8565b60405180910390fd5b6000600460003373ffffffffffffffffffffffffffffffffffffffff1673ffffffffffffffffffffffffffffffffffffffff16815260200190815260200160002054905060006003600084815260200190815260200160002060000160009054906101000a900473ffffffffffffffffffffffffffffffffffffffff16905081600560003373ffffffffffffffffffffffffffffffffffffffff1673ffffffffffffffffffffffffffffffffffffffff16815260200190815260200160002060008373ffffffffffffffffffffffffffffffffffffffff1673ffffffffffffffffffffffffffffffffffffffff16815260200190815260200160002081905550505050565b60008054906101000a900473ffffffffffffffffffffffffffffffffffffffff1681565b60036020528060005260406000206000915090508060000160009054906101000a900473ffffffffffffffffffffffffffffffffffffffff16908060010154908060020160009054906101000a900460ff16905083565b600081118015610b2257506002548111155b610b61576040517f08c379a0000000000000000000000000000000000000000000000000000000008152600401610b5890611964565b60405180910390fd5b600073ffffffffffffffffffffffffffffffffffffffff166003600083815260200190815260200160002060000160009054906101000a900473ffffffffffffffffffffffffffffffffffffffff1673ffffffffffffffffffffffffffffffffffffffff1614610c06576040517f08c379a0000000000000000000000000000000000000000000000000000000008152600401610bfd906119d0565b60405180910390fd5b6000600460003373ffffffffffffffffffffffffffffffffffffffff1673ffffffffffffffffffffffffffffffffffffffff1681526020019081526020016000205414610c88576040517f08c379a0000000000000000000000000000000000000000000000000000000008152600401610c7f90611a3c565b60405180910390fd5b6001543414610ccc576040517f08c379a0000000000000000000000000000000000000000000000000000000008152600401610cc390611aa8565b60405180910390fd5b336003600083815260200190815260200160002060000160006101000a81548173ffffffffffffffffffffffffffffffffffffffff021916908373ffffffffffffffffffffffffffffffffffffffff16021790555080600460003373ffffffffffffffffffffffffffffffffffffffff1673ffffffffffffffffffffffffffffffffffffffff1681526020019081526020016000208190555060008054906101000a900473ffffffffffffffffffffffffffffffffffffffff1673ffffffffffffffffffffffffffffffffffffffff166108fc349081150290604051600060405180830381858888f19350505050158015610dcb573d6000803e3d6000fd5b5050565b6003600082815260200190815260200160002060020160009054906101000a900460ff16610e32576040517f08c379a0000000000000000000000000000000000000000000000000000000008152600401610e2990611b14565b60405180910390fd5b6000600460003373ffffffffffffffffffffffffffffffffffffffff1673ffffffffffffffffffffffffffffffffffffffff1681526020019081526020016000205414610eb4576040517f08c379a0000000000000000000000000000000000000000000000000000000008152600401610eab90611a3c565b60405180910390fd5b60036000828152602001908152602001600020600101543414610f0c576040517f08c379a0000000000000000000000000000000000000000000000000000000008152600401610f0390611aa8565b60405180910390fd5b60006003600083815260200190815260200160002060000160009054906101000a900473ffffffffffffffffffffffffffffffffffffffff16905060006064600a6003600086815260200190815260200160002060010154610f6e9190611b34565b610f789190611ba5565b90506000816003600086815260200190815260200160002060010154610f9e9190611bd6565b90508273ffffffffffffffffffffffffffffffffffffffff166108fc829081150290604051600060405180830381858888f19350505050158015610fe6573d6000803e3d6000fd5b5060008054906101000a900473ffffffffffffffffffffffffffffffffffffffff1673ffffffffffffffffffffffffffffffffffffffff166108fc839081150290604051600060405180830381858888f1935050505015801561104d573d6000803e3d6000fd5b50336003600086815260200190815260200160002060000160006101000a81548173ffffffffffffffffffffffffffffffffffffffff021916908373ffffffffffffffffffffffffffffffffffffffff16021790555060006003600086815260200190815260200160002060020160006101000a81548160ff02191690831515021790555083600460003373ffffffffffffffffffffffffffffffffffffffff1673ffffffffffffffffffffffffffffffffffffffff16815260200190815260200160002081905550600460008473ffffffffffffffffffffffffffffffffffffffff1673ffffffffffffffffffffffffffffffffffffffff1681526020019081526020016000206000905550505050565b6000600460003373ffffffffffffffffffffffffffffffffffffffff1673ffffffffffffffffffffffffffffffffffffffff168152602001908152602001600020549050600081036111e6576040517f08c379a00000000000000000000000000000000000000000000000000000000081526004016111dd90611820565b60405180910390fd5b81600360008381526020019081526020016000206001018190555060016003600083815260200190815260200160002060020160006101000a81548160ff0219169083151502179055505050565b6060600080600190505b6002548111611292576003600082815260200190815260200160002060020160009054906101000a900460ff161561127f57818061127b90611720565b9250505b808061128a90611720565b91505061123e565b5060006002826112a29190611b34565b67ffffffffffffffff8111156112bb576112ba611c0a565b5b6040519080825280602002602001820160405280156112e95781602001602082028036833780820191505090505b509050600080600190505b60025481116113ab576003600082815260200190815260200160002060020160009054906101000a900460ff1615611398578083838151811061133a57611339611c39565b5b60200260200101818152505060036000828152602001908152602001600020600101548360018461136b9190611c68565b8151811061137c5761137b611c39565b5b6020026020010181815250506002826113959190611c68565b91505b80806113a390611720565b9150506112f4565b5081935050505090565b60025481565b600080fd5b600073ffffffffffffffffffffffffffffffffffffffff82169050919050565b60006113eb826113c0565b9050919050565b6113fb816113e0565b811461140657600080fd5b50565b600081359050611418816113f2565b92915050565b600060208284031215611434576114336113bb565b5b600061144284828501611409565b91505092915050565b6000819050919050565b61145e8161144b565b82525050565b60006020820190506114796000830184611455565b92915050565b6114888161144b565b811461149357600080fd5b50565b6000813590506114a58161147f565b92915050565b6000602082840312156114c1576114c06113bb565b5b60006114cf84828501611496565b91505092915050565b600080604083850312156114ef576114ee6113bb565b5b60006114fd85828601611409565b925050602061150e85828601611409565b9150509250929050565b611521816113e0565b82525050565b600060208201905061153c6000830184611518565b92915050565b60008115159050919050565b61155781611542565b82525050565b60006060820190506115726000830186611518565b61157f6020830185611455565b61158c604083018461154e565b949350505050565b600081519050919050565b600082825260208201905092915050565b6000819050602082019050919050565b6115c98161144b565b82525050565b60006115db83836115c0565b60208301905092915050565b6000602082019050919050565b60006115ff82611594565b611609818561159f565b9350611614836115b0565b8060005b8381101561164557815161162c88826115cf565b9750611637836115e7565b925050600181019050611618565b5085935050505092915050565b6000602082019050818103600083015261166c81846115f4565b905092915050565b600082825260208201905092915050565b7f596f7520646f6e2774206f776e2074686973207469636b657400000000000000600082015250565b60006116bb601983611674565b91506116c682611685565b602082019050919050565b600060208201905081810360008301526116ea816116ae565b9050919050565b7f4e487b7100000000000000000000000000000000000000000000000000000000600052601160045260246000fd5b600061172b8261144b565b91507fffffffffffffffffffffffffffffffffffffffffffffffffffffffffffffffff820361175d5761175c6116f1565b5b600182019050919050565b7f4e6f2073776170206f6666657220666f7220796f750000000000000000000000600082015250565b600061179e601583611674565b91506117a982611768565b602082019050919050565b600060208201905081810360008301526117cd81611791565b9050919050565b7f596f7520646f6e2774206f776e2061207469636b657400000000000000000000600082015250565b600061180a601683611674565b9150611815826117d4565b602082019050919050565b60006020820190508181036000830152611839816117fd565b9050919050565b7f546172676574207469636b6574206e6f7420736f6c6400000000000000000000600082015250565b6000611876601683611674565b915061188182611840565b602082019050919050565b600060208201905081810360008301526118a581611869565b9050919050565b7f43616e6e6f742073776170207769746820796f757273656c6600000000000000600082015250565b60006118e2601983611674565b91506118ed826118ac565b602082019050919050565b60006020820190508181036000830152611911816118d5565b9050919050565b7f496e76616c6964207469636b6574204944000000000000000000000000000000600082015250565b600061194e601183611674565b915061195982611918565b602082019050919050565b6000602082019050818103600083015261197d81611941565b9050919050565b7f5469636b657420616c726561647920736f6c6400000000000000000000000000600082015250565b60006119ba601383611674565b91506119c582611984565b602082019050919050565b600060208201905081810360008301526119e9816119ad565b9050919050565b7f596f7520616c7265616479206f776e2061207469636b65740000000000000000600082015250565b6000611a26601883611674565b9150611a31826119f0565b602082019050919050565b60006020820190508181036000830152611a5581611a19565b9050919050565b7f496e636f7272656374207061796d656e7420616d6f756e740000000000000000600082015250565b6000611a92601883611674565b9150611a9d82611a5c565b602082019050919050565b60006020820190508181036000830152611ac181611a85565b9050919050565b7f5469636b6574206e6f7420666f722073616c6500000000000000000000000000600082015250565b6000611afe601383611674565b9150611b0982611ac8565b602082019050919050565b60006020820190508181036000830152611b2d81611af1565b9050919050565b6000611b3f8261144b565b9150611b4a8361144b565b9250828202611b588161144b565b91508282048414831517611b6f57611b6e6116f1565b5b5092915050565b7f4e487b7100000000000000000000000000000000000000000000000000000000600052601260045260246000fd5b6000611bb08261144b565b9150611bbb8361144b565b925082611bcb57611bca611b76565b5b828204905092915050565b6000611be18261144b565b9150611bec8361144b565b9250828203905081811115611c0457611c036116f1565b5b92915050565b7f4e487b7100000000000000000000000000000000000000000000000000000000600052604160045260246000fd5b7f4e487b7100000000000000000000000000000000000000000000000000000000600052603260045260246000fd5b6000611c738261144b565b9150611c7e8361144b565b9250828201905080821115611c9657611c956116f1565b5b9291505056fea2646970667358221220af9ab89ffc6cda1944a9826d7ae9534da52b06dec0fb4c69b4b8f7f9a6658dd564736f6c63430008110033",
  "linkReferences": {},
  "deployedLinkReferences": {}
}